{
  "_format": "hh-sol-artifact-1",
  "contractName": "WavePortal",
  "sourceName": "contracts/WavePortal.sol",
  "abi": [
    {
      "inputs": [],
      "stateMutability": "payable",
      "type": "constructor"
    },
    {
      "anonymous": false,
      "inputs": [
        {
          "indexed": false,
          "internalType": "string",
          "name": "waveName",
          "type": "string"
        },
        {
          "indexed": true,
          "internalType": "address",
          "name": "from",
          "type": "address"
        },
        {
          "indexed": false,
          "internalType": "uint256",
          "name": "timestamp",
          "type": "uint256"
        },
        {
          "indexed": false,
          "internalType": "string",
          "name": "message",
          "type": "string"
        }
      ],
      "name": "NewWave",
      "type": "event"
    },
    {
      "inputs": [],
      "name": "getAllWaves",
      "outputs": [
        {
          "components": [
            {
              "internalType": "string",
              "name": "name",
              "type": "string"
            },
            {
              "internalType": "address",
              "name": "waver",
              "type": "address"
            },
            {
              "internalType": "string",
              "name": "message",
              "type": "string"
            },
            {
              "internalType": "uint256",
              "name": "timestamp",
              "type": "uint256"
            }
          ],
          "internalType": "struct WavePortal.Wave[]",
          "name": "",
          "type": "tuple[]"
        }
      ],
      "stateMutability": "view",
      "type": "function"
    },
    {
      "inputs": [],
      "name": "getTotalWaves",
      "outputs": [
        {
          "internalType": "uint256",
          "name": "",
          "type": "uint256"
        }
      ],
      "stateMutability": "view",
      "type": "function"
    },
    {
      "inputs": [
        {
          "internalType": "address",
          "name": "",
          "type": "address"
        }
      ],
      "name": "lastWavedAt",
      "outputs": [
        {
          "internalType": "uint256",
          "name": "",
          "type": "uint256"
        }
      ],
      "stateMutability": "view",
      "type": "function"
    },
    {
      "inputs": [
        {
          "internalType": "string",
          "name": "_name",
          "type": "string"
        },
        {
          "internalType": "string",
          "name": "_message",
          "type": "string"
        }
      ],
      "name": "wave",
      "outputs": [],
      "stateMutability": "nonpayable",
      "type": "function"
    }
  ],
  "bytecode": "0x60806040526200004f6040518060400160405280601981526020017f4920414d20534d41525420434f4e54524143542e20504f472e000000000000008152506200007760201b620007251760201c565b606444426200005f91906200017c565b6200006b919062000208565b60018190555062000308565b62000117816040516024016200008e9190620002e4565b6040516020818303038152906040527f41304fac000000000000000000000000000000000000000000000000000000007bffffffffffffffffffffffffffffffffffffffffffffffffffffffff19166020820180517bffffffffffffffffffffffffffffffffffffffffffffffffffffffff83818316178352505050506200011a60201b60201c565b50565b60008151905060006a636f6e736f6c652e6c6f679050602083016000808483855afa5050505050565b6000819050919050565b7f4e487b7100000000000000000000000000000000000000000000000000000000600052601160045260246000fd5b6000620001898262000143565b9150620001968362000143565b9250827fffffffffffffffffffffffffffffffffffffffffffffffffffffffffffffffff03821115620001ce57620001cd6200014d565b5b828201905092915050565b7f4e487b7100000000000000000000000000000000000000000000000000000000600052601260045260246000fd5b6000620002158262000143565b9150620002228362000143565b925082620002355762000234620001d9565b5b828206905092915050565b600081519050919050565b600082825260208201905092915050565b60005b838110156200027c5780820151818401526020810190506200025f565b838111156200028c576000848401525b50505050565b6000601f19601f8301169050919050565b6000620002b08262000240565b620002bc81856200024b565b9350620002ce8185602086016200025c565b620002d98162000292565b840191505092915050565b60006020820190508181036000830152620003008184620002a3565b905092915050565b6113e180620003186000396000f3fe608060405234801561001057600080fd5b506004361061004c5760003560e01c806351872959146100515780639a2cdc081461006d578063a42a46631461008b578063bd43a908146100bb575b600080fd5b61006b60048036038101906100669190610bbe565b6100d9565b005b6100756104df565b6040516100829190610c4f565b60405180910390f35b6100a560048036038101906100a09190610cc8565b61052a565b6040516100b29190610c4f565b60405180910390f35b6100c3610542565b6040516100d09190610ec7565b60405180910390f35b42601e600260003373ffffffffffffffffffffffffffffffffffffffff1673ffffffffffffffffffffffffffffffffffffffff168152602001908152602001600020546101269190610f18565b10610166576040517f08c379a000000000000000000000000000000000000000000000000000000000815260040161015d90610fcb565b60405180910390fd5b42600260003373ffffffffffffffffffffffffffffffffffffffff1673ffffffffffffffffffffffffffffffffffffffff1681526020019081526020016000208190555060016000808282546101bc9190610f18565b925050819055506101e76040518060600160405280602c8152602001611380602c91398333846107be565b600360405180608001604052808481526020013373ffffffffffffffffffffffffffffffffffffffff16815260200183815260200142815250908060018154018082558091505060019003906000526020600020906004020160009091909190915060008201518160000190805190602001906102659291906109c1565b5060208201518160010160006101000a81548173ffffffffffffffffffffffffffffffffffffffff021916908373ffffffffffffffffffffffffffffffffffffffff16021790555060408201518160020190805190602001906102c99291906109c1565b50606082015181600301555050606460015442446102e79190610f18565b6102f19190610f18565b6102fb919061101a565b6001819055506103426040518060400160405280601681526020017f52616e646f6d20232067656e6572617465643a20256400000000000000000000815250600154610860565b603260015410156104895761038c6040518060400160405280600781526020017f257320776f6e2100000000000000000000000000000000000000000000000000815250336108fc565b6000655af3107a40009050478111156103da576040517f08c379a00000000000000000000000000000000000000000000000000000000081526004016103d1906110bd565b60405180910390fd5b60003373ffffffffffffffffffffffffffffffffffffffff16826040516104009061110e565b60006040518083038185875af1925050503d806000811461043d576040519150601f19603f3d011682016040523d82523d6000602084013e610442565b606091505b5050905080610486576040517f08c379a000000000000000000000000000000000000000000000000000000000815260040161047d90611195565b60405180910390fd5b50505b3373ffffffffffffffffffffffffffffffffffffffff167f8114eaf65bde2641a13d22d6ccaf181fef616fa4491aa15a950c04d8ac59a1248342846040516104d3939291906111ee565b60405180910390a25050565b60006105226040518060400160405280601781526020017f5765206861766520256420746f74616c20776176657321000000000000000000815250600054610860565b600054905090565b60026020528060005260406000206000915090505481565b60606003805480602002602001604051908101604052809291908181526020016000905b8282101561071c578382906000526020600020906004020160405180608001604052908160008201805461059990611262565b80601f01602080910402602001604051908101604052809291908181526020018280546105c590611262565b80156106125780601f106105e757610100808354040283529160200191610612565b820191906000526020600020905b8154815290600101906020018083116105f557829003601f168201915b505050505081526020016001820160009054906101000a900473ffffffffffffffffffffffffffffffffffffffff1673ffffffffffffffffffffffffffffffffffffffff1673ffffffffffffffffffffffffffffffffffffffff16815260200160028201805461068190611262565b80601f01602080910402602001604051908101604052809291908181526020018280546106ad90611262565b80156106fa5780601f106106cf576101008083540402835291602001916106fa565b820191906000526020600020905b8154815290600101906020018083116106dd57829003601f168201915b5050505050815260200160038201548152505081526020019060010190610566565b50505050905090565b6107bb816040516024016107399190611294565b6040516020818303038152906040527f41304fac000000000000000000000000000000000000000000000000000000007bffffffffffffffffffffffffffffffffffffffffffffffffffffffff19166020820180517bffffffffffffffffffffffffffffffffffffffffffffffffffffffff8381831617835250505050610998565b50565b61085a848484846040516024016107d894939291906112c5565b6040516020818303038152906040527feb1bff80000000000000000000000000000000000000000000000000000000007bffffffffffffffffffffffffffffffffffffffffffffffffffffffff19166020820180517bffffffffffffffffffffffffffffffffffffffffffffffffffffffff8381831617835250505050610998565b50505050565b6108f8828260405160240161087692919061131f565b6040516020818303038152906040527fb60e72cc000000000000000000000000000000000000000000000000000000007bffffffffffffffffffffffffffffffffffffffffffffffffffffffff19166020820180517bffffffffffffffffffffffffffffffffffffffffffffffffffffffff8381831617835250505050610998565b5050565b610994828260405160240161091292919061134f565b6040516020818303038152906040527f319af333000000000000000000000000000000000000000000000000000000007bffffffffffffffffffffffffffffffffffffffffffffffffffffffff19166020820180517bffffffffffffffffffffffffffffffffffffffffffffffffffffffff8381831617835250505050610998565b5050565b60008151905060006a636f6e736f6c652e6c6f679050602083016000808483855afa5050505050565b8280546109cd90611262565b90600052602060002090601f0160209004810192826109ef5760008555610a36565b82601f10610a0857805160ff1916838001178555610a36565b82800160010185558215610a36579182015b82811115610a35578251825591602001919060010190610a1a565b5b509050610a439190610a47565b5090565b5b80821115610a60576000816000905550600101610a48565b5090565b6000604051905090565b600080fd5b600080fd5b600080fd5b600080fd5b6000601f19601f8301169050919050565b7f4e487b7100000000000000000000000000000000000000000000000000000000600052604160045260246000fd5b610acb82610a82565b810181811067ffffffffffffffff82111715610aea57610ae9610a93565b5b80604052505050565b6000610afd610a64565b9050610b098282610ac2565b919050565b600067ffffffffffffffff821115610b2957610b28610a93565b5b610b3282610a82565b9050602081019050919050565b82818337600083830152505050565b6000610b61610b5c84610b0e565b610af3565b905082815260208101848484011115610b7d57610b7c610a7d565b5b610b88848285610b3f565b509392505050565b600082601f830112610ba557610ba4610a78565b5b8135610bb5848260208601610b4e565b91505092915050565b60008060408385031215610bd557610bd4610a6e565b5b600083013567ffffffffffffffff811115610bf357610bf2610a73565b5b610bff85828601610b90565b925050602083013567ffffffffffffffff811115610c2057610c1f610a73565b5b610c2c85828601610b90565b9150509250929050565b6000819050919050565b610c4981610c36565b82525050565b6000602082019050610c646000830184610c40565b92915050565b600073ffffffffffffffffffffffffffffffffffffffff82169050919050565b6000610c9582610c6a565b9050919050565b610ca581610c8a565b8114610cb057600080fd5b50565b600081359050610cc281610c9c565b92915050565b600060208284031215610cde57610cdd610a6e565b5b6000610cec84828501610cb3565b91505092915050565b600081519050919050565b600082825260208201905092915050565b6000819050602082019050919050565b600081519050919050565b600082825260208201905092915050565b60005b83811015610d5b578082015181840152602081019050610d40565b83811115610d6a576000848401525b50505050565b6000610d7b82610d21565b610d858185610d2c565b9350610d95818560208601610d3d565b610d9e81610a82565b840191505092915050565b610db281610c8a565b82525050565b610dc181610c36565b82525050565b60006080830160008301518482036000860152610de48282610d70565b9150506020830151610df96020860182610da9565b5060408301518482036040860152610e118282610d70565b9150506060830151610e266060860182610db8565b508091505092915050565b6000610e3d8383610dc7565b905092915050565b6000602082019050919050565b6000610e5d82610cf5565b610e678185610d00565b935083602082028501610e7985610d11565b8060005b85811015610eb55784840389528151610e968582610e31565b9450610ea183610e45565b925060208a01995050600181019050610e7d565b50829750879550505050505092915050565b60006020820190508181036000830152610ee18184610e52565b905092915050565b7f4e487b7100000000000000000000000000000000000000000000000000000000600052601160045260246000fd5b6000610f2382610c36565b9150610f2e83610c36565b9250827fffffffffffffffffffffffffffffffffffffffffffffffffffffffffffffffff03821115610f6357610f62610ee9565b5b828201905092915050565b600082825260208201905092915050565b7f5761697420666f722033302073656320706c6561736521000000000000000000600082015250565b6000610fb5601783610f6e565b9150610fc082610f7f565b602082019050919050565b60006020820190508181036000830152610fe481610fa8565b9050919050565b7f4e487b7100000000000000000000000000000000000000000000000000000000600052601260045260246000fd5b600061102582610c36565b915061103083610c36565b9250826110405761103f610feb565b5b828206905092915050565b7f547279696e6720746f207769746864726177206d6f7265206d6f6e657920746860008201527f616e2074686520636f6e7472616374206861732e000000000000000000000000602082015250565b60006110a7603483610f6e565b91506110b28261104b565b604082019050919050565b600060208201905081810360008301526110d68161109a565b9050919050565b600081905092915050565b50565b60006110f86000836110dd565b9150611103826110e8565b600082019050919050565b6000611119826110eb565b9150819050919050565b7f4661696c656420746f207769746864726177206d6f6e65792066726f6d20636f60008201527f6e74726163742e00000000000000000000000000000000000000000000000000602082015250565b600061117f602783610f6e565b915061118a82611123565b604082019050919050565b600060208201905081810360008301526111ae81611172565b9050919050565b60006111c082610d21565b6111ca8185610f6e565b93506111da818560208601610d3d565b6111e381610a82565b840191505092915050565b6000606082019050818103600083015261120881866111b5565b90506112176020830185610c40565b818103604083015261122981846111b5565b9050949350505050565b7f4e487b7100000000000000000000000000000000000000000000000000000000600052602260045260246000fd5b6000600282049050600182168061127a57607f821691505b6020821081141561128e5761128d611233565b5b50919050565b600060208201905081810360008301526112ae81846111b5565b905092915050565b6112bf81610c8a565b82525050565b600060808201905081810360008301526112df81876111b5565b905081810360208301526112f381866111b5565b905061130260408301856112b6565b818103606083015261131481846111b5565b905095945050505050565b6000604082019050818103600083015261133981856111b5565b90506113486020830184610c40565b9392505050565b6000604082019050818103600083015261136981856111b5565b905061137860208301846112b6565b939250505056fe257320686176696e672061646472657373202573206861732077617665642061206d65737361676520257321a2646970667358221220668d4c22847f6b8e67b3899d7987334951da9bc02929cd9fca1e83e1dc1771dc64736f6c63430008090033",
  "linkReferences": {},
  "deployedLinkReferences": {}
}